:020000040000FA
:100000000C945D000C9485000C9485000C94850084
:100010000C9485000C9485000C9485000C9485004C
:100020000C9485000C9485000C9485000C9485003C
:100030000C9485000C9485000C9485000C9485002C
:100040000C94D5030C9485000C9445040C941F0467
:100050000C9485000C9485000C9485000C9485000C
:100060000C9485000C94850000000008000201003B
:100070000003040700000000000000000000000072
:10008000250028002B0000000000240027002A0083
:10009000040404040404040402020202020203032E
:1000A0000303030301020408102040800102040836
:1000B0001020010204081020770411241FBECFEF86
:1000C000D8E0DEBFCDBF11E0A0E0B1E0E8E0FCE0A9
:1000D00002C005900D92AC35B107D9F722E0ACE52E
:1000E000B1E001C01D92A232B207E1F710E0CDE508
:1000F000D0E004C02197FE010E94F305CC35D10762
:10010000C9F70E94C8040C9402060C94000090E009
:10011000FC01EC55FF4F249180579F4FFC018491C7
:10012000882399F090E0880F991FFC01EA57FF4F50
:10013000A591B491FC01E458FF4F859194918FB73C
:10014000F894EC91E22BEC938FBF089590E0FC01C2
:10015000E859FF4F2491FC01EC55FF4F3491FC010D
:10016000E057FF4FE491EE23C9F0222339F023300A
:1001700001F1A8F4213019F1223029F1F0E0EE0F5D
:10018000FF1FE458FF4FA591B4918FB7F894EC91FD
:10019000611126C030953E233C938FBF08952730D0
:1001A000A9F02830C9F0243049F7809180008F7D74
:1001B00003C0809180008F7780938000DFCF84B56B
:1001C0008F7784BDDBCF84B58F7DFBCF8091B0006E
:1001D0008F778093B000D2CF8091B0008F7DF9CF20
:1001E0003E2BDACF3FB7F894809163019091640180
:1001F000A0916501B091660126B5A89B05C02F3F6F
:1002000019F00196A11DB11D3FBFBA2FA92F982F3C
:100210008827BC01CD01620F711D811D911D42E037
:10022000660F771F881F991F4A95D1F708958F92FF
:100230009F92AF92BF92CF92DF92EF92FF924B01CB
:100240005C010E94F2006B017C010E94F2006C19BB
:100250007D098E099F09683E734081059105A8F3C9
:1002600021E0821A9108A108B10888EEC80E83E047
:10027000D81EE11CF11C81149104A104B10429F7DA
:10028000FF90EF90DF90CF90BF90AF909F908F90B6
:100290000895AF92BF92CF92DF92EF92FF920F93A9
:1002A0001F93CF93DF936C017B018B01040F151F0C
:1002B000EB015E01AE18BF08C017D10759F0699174
:1002C000D601ED91FC910190F081E02DC6010995D8
:1002D000892B79F7C501DF91CF911F910F91FF9085
:1002E000EF90DF90CF90BF90AF900895FC01538DB9
:1002F000448D252F30E0842F90E0821B930B541700
:1003000010F0CF96089501970895FC01918D828D8C
:10031000981761F0A28DAE0FBF2FB11D5D968C9125
:10032000928D9F5F9F73928F90E008958FEF9FEF64
:100330000895FC01918D828D981731F0828DE80F20
:10034000F11D858D90E008958FEF9FEF0895FC01DA
:10035000918D228D892F90E0805C9F4F821B9109A7
:100360008F739927089587E691E00E94A70121E005
:10037000892B09F420E0822F089580E090E0892BFA
:1003800029F00E94B30181110C9400000895FC0132
:10039000A48DA80FB92FB11DA35ABF4F2C91848DE6
:1003A00090E001968F739927848FA689B7892C9343
:1003B000A089B1898C91837080648C93938D848D96
:1003C000981306C00288F389E02D80818F7D808399
:1003D0000895EF92FF920F931F93CF93DF93EC0159
:1003E00081E0888F9B8D8C8D98131AC0E889F989DC
:1003F000808185FF15C09FB7F894EE89FF896083DF
:10040000E889F98980818370806480839FBF81E05F
:1004100090E0DF91CF911F910F91FF90EF900895A1
:10042000F62E0B8D10E00F5F1F4F0F731127E02E7C
:100430008C8D8E110CC00FB607FCFACFE889F989B4
:10044000808185FFF5CFCE010E94C701F1CFEB8DF2
:10045000EC0FFD2FF11DE35AFF4FF0829FB7F89488
:100460000B8FEA89FB8980818062CFCFCF93DF93A6
:10047000EC01888D8823B9F0AA89BB89E889F989BC
:100480008C9185FD03C0808186FD0DC00FB607FCF1
:10049000F7CF8C9185FFF2CF808185FFEDCFCE0124
:1004A0000E94C701E9CFDF91CF910895089590E0B0
:1004B00080E00895FC0101900020E9F73197AF0139
:1004C000481B590BBC0184E092E00C944901CF9386
:1004D000DF93EC0160E08E810E94A60061E08E81D6
:1004E0000E94A60060E08E810E94A6008BE891E049
:1004F0000197F1F7DF91CF910895CF92DF92EF92BC
:10050000FF920F931F93CF93DF936C017C0187E0E1
:10051000E80EF11CD0E0C0E0062F10E0B8010C2E70
:1005200002C0759567950A94E2F76170F7018191B1
:100530007F010E94A6002196C430D10579F7C6013B
:10054000DF91CF911F910F91FF90EF90DF90CF90AF
:100550000C946702CF92DF92EF92FF920F931F935A
:10056000CF93DF93EC01F62E642F8C810E94A600BE
:100570008D818F3F19F060E00E94A6000F2D10E0E2
:100580008F8584FF25C06E0187E0C80ED11CF12C39
:10059000E12CB8010E2C02C0759567950A94E2F71C
:1005A0006170F60181916F010E94A600FFEFEF1AC2
:1005B000FF0A88E0E816F10461F7CE01DF91CF91E0
:1005C0001F910F91FF90EF90DF90CF900C946702F6
:1005D000B80184E0759567958A95E1F7CE010E9490
:1005E0007D026F2DCE01DF91CF911F910F91FF9072
:1005F000EF90DF90CF900C947D0240E0682F84E074
:1006000092E00C94AA0281E00E94FD028BE39FE13C
:100610000197F1F70895CF93DF93823029F49091F9
:10062000130298609093130280931702109218029D
:1006300080E48093190280E180931A0280E5809320
:100640001B02809108020E948700809109028F3F5F
:1006500011F00E94870080910A020E948700C4E086
:10066000D2E09E01245032408091130284FD0AC0E2
:1006700084E090E02196281739073CF48E810E948F
:100680008700EFCF88E090E0F5CF8BE39DE0019706
:10069000F1F760E0809108020E94A60060E080917E
:1006A0000A020E94A600809109028F3F19F060E0C3
:1006B0000E94A6008091130284FD34C063E084E0B0
:1006C00092E00E947D02CBE4D6E4CE010197F1F7DF
:1006D00063E084E092E00E947D022197F1F763E0FD
:1006E00084E092E00E947D0283E592E00197F1F7B9
:1006F00062E084E092E00E947D02809113028062B9
:100700000E94FD0284E0809314028CE00E94FD02AE
:100710000E94030382E08093150286E0DF91CF916F
:100720000C94FD0280620E94FD028BE496E4019726
:10073000F1F78091130280620E94FD0283E592E04E
:100740000197F1F78091130280620E94FD02D5CFDC
:1007500090911702691710F06FEF690FE62FF0E024
:10076000EC5FFD4F9489890F80680C94FD020E9414
:10077000030360E080E00E94A8038EE191E00C9406
:100780005A020E94030360E080E00E94A8038CE20A
:1007900091E00E945A0261E080E00C94A80341E0DD
:1007A0000E94AA0281E090E008951F920F920FB676
:1007B0000F9211242F933F938F939F93AF93BF93E7
:1007C00080915F0190916001A0916101B0916201FF
:1007D00030915E0123E0230F2D3758F50196A11DBE
:1007E000B11D20935E0180935F0190936001A093FF
:1007F0006101B09362018091630190916401A091C5
:100800006501B09166010196A11DB11D8093630140
:1008100090936401A0936501B0936601BF91AF917D
:100820009F918F913F912F910F900FBE0F901F902E
:10083000189526E8230F0296A11DB11DD2CF1F9255
:100840000F920FB60F9211242F933F934F935F9304
:100850006F937F938F939F93AF93BF93EF93FF9388
:1008600087E691E00E94C701FF91EF91BF91AF91A0
:100870009F918F917F916F915F914F913F912F91B8
:100880000F900FBE0F901F9018951F920F920FB6EA
:100890000F9211242F938F939F93EF93FF93E091E7
:1008A0007701F09178018081E0917D01F0917E01E6
:1008B00082FD1BC09081809180018F5F8F7320919A
:1008C0008101821741F0E0918001F0E0E959FE4F8B
:1008D000958F80938001FF91EF919F918F912F9140
:1008E0000F900FBE0F901F9018958081F4CFCF937B
:1008F000DF93E7E6F1E01382128288EE93E0A0E056
:10090000B0E084839583A683B78384E091E09183EC
:10091000808385EC90E09587848784EC90E09787CE
:10092000868780EC90E0918B808B81EC90E0938BBC
:10093000828B82EC90E0958B848B86EC90E0978B99
:10094000868B118E128E138E148EC4E0D2E01B8221
:100950001A8286E191E0998388838CE08C838FEF03
:100960008D838BE08E8385E08F8384E0888783E0AE
:10097000898782E08A871B861C861D861E861F86C5
:1009800081E00E940B031D8E188EDF91CF91089598
:10099000789484B5826084BD84B5816084BD85B55A
:1009A000826085BD85B5816085BD80916E00816066
:1009B00080936E001092810080918100826080930C
:1009C000810080918100816080938100809180000E
:1009D0008160809380008091B10084608093B10039
:1009E0008091B00081608093B00080917A00846033
:1009F00080937A0080917A00826080937A0080915F
:100A00007A00816080937A0080917A008068809378
:100A10007A001092C10082E00E940B030E94C10381
:100A2000E0917701F091780182E08083E091730199
:100A3000F09174011082E0917501F09176018FECD4
:100A4000808310927F01E0917B01F0917C0186E030
:100A50008083E0917901F0917A01808180618083C7
:100A6000E0917901F0917A01808188608083E09142
:100A70007901F0917A01808180688083E091790129
:100A8000F0917A0180818F7D8083C0E0D0E087E69D
:100A900091E00E94A701892BB9F187E691E00E94BD
:100AA00085018A3019F08D3009F05DC067E371E08F
:100AB0008CE192E00E94F905892B81F50E940303E5
:100AC00060E080E00E94A8038CE391E00E945A025B
:100AD00068EB7BE080E090E00E94170110925D01DE
:100AE00010925C011092210210921C0261E080E0E1
:100AF0000E94A8038BE491E00E945A0261E080E02A
:100B00000E94A8030E94C103209709F20E94B3012A
:100B1000882309F4BCCF0E940000B9CF80915C010A
:100B200090915D01019690935D0180935C010E941C
:100B3000B70360ED77E080E090E00E9417018091BC
:100B40005C0190915D0103976CF282E00E940B03BF
:100B50000E94C1030E94B70368EB7BE080E090E055
:100B60000E941701FFCF8830D9F480912102882399
:100B700059F2815080932102E82FF0E0EC5FFD4FA5
:100B8000108E61E00E94A80341E060E284E092E000
:100B90000E94AA0261E0809121020E94A803B4CFC2
:100BA000282F082E000C330B205331092A30310531
:100BB00008F0AACFE0912102E43008F0A5CF91E03F
:100BC0009E0F90932102F0E0EC5FFD4F808FE92FA4
:100BD000F0E0EC5FFD4F108E41E06AE284E092E0CD
:100BE0000E94AA0291CFEE0FFF1F0590F491E02D15
:100BF0000994FB01DC018D91019080190110D9F35A
:100C0000990B0895F894FFCF00000000E901490115
:100C100076013602A7018501990100000000CF038B
:100C20004901570256024163636573732044656E40
:100C300069656400456E7465722050494E3A003112
:100C400032333400416363657373204772616E749D
:100C5000656400202020202020202020202020202B
:040C60002020200030
:107E0000112484B714BE81FFF0D085E080938100F7
:107E100082E08093C00088E18093C10086E0809377
:107E2000C20080E18093C4008EE0C9D0259A86E02C
:107E300020E33CEF91E0309385002093840096BBD3
:107E4000B09BFECF1D9AA8958150A9F7CC24DD24C4
:107E500088248394B5E0AB2EA1E19A2EF3E0BF2EE7
:107E6000A2D0813461F49FD0082FAFD0023811F036
:107E7000013811F484E001C083E08DD089C08234E0
:107E800011F484E103C0853419F485E0A6D080C0E4
:107E9000853579F488D0E82EFF2485D0082F10E0AE
:107EA000102F00270E291F29000F111F8ED06801E7
:107EB0006FC0863521F484E090D080E0DECF843638
:107EC00009F040C070D06FD0082F6DD080E0C81688
:107ED00080E7D80618F4F601B7BEE895C0E0D1E017
:107EE00062D089930C17E1F7F0E0CF16F0E7DF06D8
:107EF00018F0F601B7BEE89568D007B600FCFDCFD4
:107F0000A601A0E0B1E02C9130E011968C91119780
:107F100090E0982F8827822B932B1296FA010C0160
:107F200087BEE89511244E5F5F4FF1E0A038BF0790
:107F300051F7F601A7BEE89507B600FCFDCF97BE46
:107F4000E89526C08437B1F42ED02DD0F82E2BD052
:107F50003CD0F601EF2C8F010F5F1F4F84911BD097
:107F6000EA94F801C1F70894C11CD11CFA94CF0C13
:107F7000D11C0EC0853739F428D08EE10CD085E9AC
:107F80000AD08FE07ACF813511F488E018D01DD067
:107F900080E101D065CF982F8091C00085FFFCCF94
:107FA0009093C60008958091C00087FFFCCF809118
:107FB000C00084FD01C0A8958091C6000895E0E648
:107FC000F0E098E1908380830895EDDF803219F02E
:107FD00088E0F5DFFFCF84E1DECF1F93182FE3DFCA
:107FE0001150E9F7F2DF1F91089580E0E8DFEE27F6
:047FF000FF270994CA
:027FFE00040479
:00000001FF
