:100000000C9463000C948B000C948B000C948B006C
:100010000C948B000C948B000C948B000C948B0034
:100020000C948B000C948B000C948B000C948B0024
:100030000C948B000C948B000C948B000C948B0014
:100040000C94E5030C948B000C948B000C948B00A7
:100050000C948B000C948B000C948B000C948B00F4
:100060000C948B000C948B000000000023002600F1
:10007000290000000000240027002A0000000000E2
:10008000250028002B0004040404040404040202D4
:100090000202020203030303030301020408102007
:1000A0004080010204081020010204081020000012
:1000B0000008000201000003040700000000000027
:1000C00000008C060E0711241FBECFEFD8E0DEBF64
:1000D000CDBF11E0A0E0B1E0EAEAF0E102C0059096
:1000E0000D92A236B107D9F721E0A2E6B1E001C036
:1000F0001D92AF38B207E1F710E0C2E6D0E004C0CD
:100100002197FE010E941407C136D107C9F70E944A
:100110002F040C9448080C940000833081F028F4DC
:10012000813099F08230A9F008958730A9F08830A5
:10013000C9F08430B1F4809180008F7D03C080913C
:1001400080008F7780938000089584B58F7784BD79
:10015000089584B58F7DFBCF8091B0008F77809319
:10016000B00008958091B0008F7DF9CF1F93CF9399
:10017000DF93282F30E0F901E255FF4F8491F90118
:10018000E656FF4FD491F901EA57FF4FC491CC23B3
:10019000A9F0162F81110E948D00EC2FF0E0EE0FD8
:1001A000FF1FE458FF4FA591B4918FB7F894EC91DD
:1001B000111108C0D095DE23DC938FBFDF91CF9162
:1001C0001F910895DE2BF8CFCF93DF9390E0FC01D1
:1001D000E656FF4F24918A579F4FFC018491882354
:1001E000C9F090E0880F991FFC01EE58FF4FA591D0
:1001F000B491FC01E458FF4FC591D49161110DC039
:100200009FB7F8948C91209582238C938881282322
:1002100028839FBFDF91CF910895623051F49FB73B
:10022000F8943C91822F809583238C93E8812E2B28
:10023000EFCF8FB7F894EC912E2B2C938FBFEACF92
:100240003FB7F8948091690190916A01A0916B0188
:10025000B0916C0126B5A89B05C02F3F19F00196FF
:10026000A11DB11D3FBFBA2FA92F982F8827BC0110
:10027000CD01620F711D811D911D42E0660F771F38
:10028000881F991F4A95D1F708958F929F92AF9238
:10029000BF92CF92DF92EF92FF920E9420014B011A
:1002A0005C0180EDC82E87E0D82EE12CF12C0E9455
:1002B0002001681979098A099B09683E7340810504
:1002C0009105A8F321E0C21AD108E108F10888EEEF
:1002D000880E83E0981EA11CB11CC114D104E10456
:1002E000F10429F7FF90EF90DF90CF90BF90AF908F
:1002F0009F908F900895AF92BF92CF92DF92EF922E
:10030000FF920F931F93CF93DF936C017B018B01BF
:10031000040F151FEB015E01AE18BF08C017D1070F
:1003200059F06991D601ED91FC910190F081E02D99
:10033000C6010995892B79F7C501DF91CF911F91EE
:100340000F91FF90EF90DF90CF90BF90AF90089506
:10035000CF93DF93DC0126E0629FA00DB11D112435
:1003600090965C934E935F9721E091962C93919792
:10037000FC01E359FF4F0190F081E02DEC01C459DD
:10038000DF4F2881222341F0309719F0DC016623EA
:1003900029F0DF91CF9108953097D9F35C968C9135
:1003A000DF91CF910994CF92DF92EF92FF920F935A
:1003B0001F93CF93DF93FC0126E0629FE00DF11DB8
:1003C000112411A2278D30A12130310559F188F077
:1003D0002230310509F452C02330310509F453C0ED
:1003E000DF91CF911F910F91FF90EF90DF90CF9011
:1003F00008954423A9F3EC0141E050E00E94A801D4
:100400002FB7F8948091650190916601A0916701E2
:10041000B09168012FBFC85ADF4F88839983AA83A0
:10042000BB83DECF2FB7F894C0906501D0906601F2
:10043000E0906701F09068012FBFFC01E85AFF4F80
:100440000081118122813381C01AD10AE20AF30AA4
:1004500072960081118130E020E00C151D052E05FB
:100460003F0560F442E050E0DF91CF911F910F9182
:10047000FF90EF90DF90CF900C94A8014111B0CF86
:1004800043E050E0F1CF50E040E0EECFCF93DF9378
:1004900070E0FB01E255FF4F8491FB01E656FF4FF0
:1004A000D4916A577F4FFB01C491CC23A1F08111F5
:1004B0000E948D00EC2FF0E0EE0FFF1FE859FF4F78
:1004C000A591B491EC91ED2381E090E009F480E0F6
:1004D000DF91CF91089580E090E0FACF862F642FCE
:1004E0000C94B600862F642F0C94E400089590E0DD
:1004F00080E00895009769F0FC0101900020E9F781
:100500003197AF01481B590BBC018DE691E00C946B
:100510007B0190E080E00895CF93DF93EC0160E0F1
:100520008E810E94B60061E08E810E94B60060E07C
:100530008E810E94B6008BE891E00197F1F7DF9180
:10054000CF910895CF92DF92EF92FF920F931F9376
:10055000CF93DF936C017C0187E0E80EF11CD0E0C3
:10056000C0E0062F10E0B8010C2E02C0759567950B
:100570000A94E2F76170F70181917F010E94B60051
:100580002196C430D10579F7C601DF91CF911F9133
:100590000F91FF90EF90DF90CF900C948C02CF9250
:1005A000DF92EF92FF920F931F93CF93DF93EC01B3
:1005B000F62E642F8C810E94B6008D818F3F19F03A
:1005C00060E00E94B6000F2D10E08F8584FF25C0EB
:1005D0006E0187E0C80ED11CF12CE12CB8010E2C65
:1005E00002C0759567950A94E2F76170F6018191F2
:1005F0006F010E94B600FFEFEF1AFF0A88E0E816CD
:10060000F10461F7CE01DF91CF911F910F91FF901F
:10061000EF90DF90CF900C948C02B80184E0759538
:1006200067958A95E1F7CE010E94A2026F2DCE0157
:10063000DF91CF911F910F91FF90EF90DF90CF90BE
:100640000C94A20240E0682F8DE691E00C94CF025A
:1006500081E00E9422038BE39FE10197F1F7089567
:10066000CF93DF93823029F490917C01986090932E
:100670007C01809380011092810180E4809382014B
:1006800080E18093830180E58093840161E0809123
:1006900071010E94E400809172018F3F19F061E0C6
:1006A0000E94E40061E0809173010E94E400CDE6C5
:1006B000D1E09E012D56314080917C0184FD0BC01C
:1006C00084E090E021962817390744F461E08E8198
:1006D0000E94E400EECF88E090E0F4CF8BE39DE051
:1006E0000197F1F760E0809171010E94B60060E02F
:1006F000809173010E94B600809172018F3F19F0C2
:1007000060E00E94B60080917C0184FD34C063E00B
:100710008DE691E00E94A202CBE4D6E4CE010197DF
:10072000F1F763E08DE691E00E94A2022197F1F7D4
:1007300063E08DE691E00E94A20283E592E00197DA
:10074000F1F762E08DE691E00E94A20280917C01C7
:1007500080620E94220384E080937D018CE00E94ED
:1007600022030E94280382E080937E0186E0DF91CD
:10077000CF910C94220380620E9422038BE496E4C2
:100780000197F1F780917C0180620E94220383E54A
:1007900092E00197F1F780917C0180620E94220330
:1007A000D5CF90918001891710F08FEF890FE82F36
:1007B000F0E0E359FE4F848980680C94220341E005
:1007C0000E94CF0281E090E008951F920F920FB631
:1007D0000F9211242F933F938F939F93AF93BF93C7
:1007E0008091650190916601A0916701B0916801C7
:1007F0003091640123E0230F2D3758F50196A11D98
:10080000B11D209364018093650190936601A093CC
:100810006701B09368018091690190916A01A0918C
:100820006B01B0916C010196A11DB11D809369010E
:1008300090936A01A0936B01B0936C01BF91AF914B
:100840009F918F913F912F910F900FBE0F901F900E
:10085000189526E8230F0296A11DB11DD2CFCF9384
:10086000DF93CDB7DEB72C970FB6F894DEBF0FBE7F
:10087000CDBF789484B5826084BD84B5816084BD29
:1008800085B5826085BD85B5816085BD80916E002E
:10089000816080936E00109281008091810082605F
:1008A000809381008091810081608093810080919C
:1008B00080008160809380008091B100846080938B
:1008C000B1008091B00081608093B00080917A0087
:1008D000846080937A0080917A00826080937A00AD
:1008E00080917A00816080937A0080917A0080689C
:1008F00080937A001092C10082E00E9430030E942F
:10090000280380E00E94D10384E391E00E947A02F0
:1009100081E00E94D10361E081E00E94E40060E098
:1009200081E00E94B600412C512C32014394209169
:100930006201309163013C872B8724593F4F3C83F0
:100940002B83E1E0D901EC938FB7F89440916501D6
:100950005091660160916701709168018FBF2B858E
:100960003C85245A3F4F3E832D83F901808191813C
:10097000A281B381481B590B6A0B7B0BEB85FC856D
:10098000E859FF4F80819181B0E0A0E0841795077E
:10099000A607B70708F090C1F12C2B853C852A5992
:1009A0003F4F3A8329830B851C850E591F4FA98120
:1009B000BA818C91F816A0F4F801A081B181AF0D35
:1009C000B11DEB85FC8580819181FC012081318105
:1009D00042E06C918B859C85F9010995F394E7CFF2
:1009E000312C2B853C8529593F4F38872F83CB8469
:1009F000DC8434E6C30ED11C4B855C854E595F4FB9
:100A00005A874987AF81B8858C91381608F087C01E
:100A1000E32CF12CF601A081B181CD018E0D9F1D3B
:100A2000AB85BC85ED91FC910190F081E02D41E01A
:100A3000DC016C918B859C850995F601A081B181C3
:100A4000CD018E0D9F1DAB85BC85ED91FC91028083
:100A5000F381E02D40E0DC016C918B859C8509954C
:100A6000D301C201032C04C0880F991FAA1FBB1F0A
:100A70000A94D2F74C015C01A094B094212CAB8570
:100A8000BC85ED91FC91A981BA818C91281628F53D
:100A9000022D10E0A985BA858D919C91DC01A00FF3
:100AA000B11F0480F581E02D6C918B859C850995A3
:100AB000000F111FEB85FC85E00FF11F892B41F41E
:100AC0008085918588299929918780872394D7CF1C
:100AD000808591858A219B21F7CFD6018D919C91AC
:100AE000DC01AE0DBF1D0280F381E02D41E06C9171
:100AF0008B859C850995F60180819181E80EF91E10
:100B0000AB85BC85ED91FC910190F081E02D40E03A
:100B1000D7016C918B859C850995339473CFEB84B9
:100B2000FC84C701CC968701F801278D30A1232BC7
:100B300031F4148E2FEF3FEF368F258F11A20A5F0D
:100B40001F4F0817190781F7912CCB84DC8430E6FE
:100B5000C30ED11CA981BA818C91981608F05BC094
:100B6000812CA92CB12CB4E0AB0EB11CAA0CBB1C7F
:100B7000EB85FC85AE0EBF1EAF81B8858C918816C3
:100B800008F047C0F50140815181082C02C05695FC
:100B900047950A94E2F7989EC0011124880D911D93
:100BA000EB85FC8560E0258D368D8217930709F46F
:100BB000B1C06F5F36966A30B1F740FF28C0EB8551
:100BC000FC8570E060E0248D21111BC0D601ED9101
:100BD000FC91E80FF91F2081B6E0B69FF001B79FA6
:100BE000F00D11244B855C85E40FF51F248F968F43
:100BF000858F10A2178E41E08B859C850E94D301C2
:100C000006C06F5F7F4F36966A307105E1F68394B8
:100C1000B3CF93949FCF80E0D70191969C9191118F
:100C2000892FB6E0EB0EF11C0E151F05A9F79FB733
:100C3000F89440916501509166016091670170914F
:100C400068019FBFED81FE8140835183628373837E
:100C5000882391F1AB85BC8591968C9191978823DF
:100C600059F15F968D919C919097019729F55C962B
:100C70009C91933231F1292F092E000C330B205314
:100C800031092A303105A0F5E0918A01E43080F580
:100C900081E08E0F80938A01F0E0E359FE4F908F40
:100CA000E82FF0E0E359FE4F108E41E06AE28DE656
:100CB00091E00E94CF021CC0EB81FC81108290E089
:100CC000DACF60E471E085E891E00E943F08892B6B
:100CD000B9F40E94280380E00E94D10385E491E0EA
:100CE0000E947A0261E081E00E94B6000E94450104
:100CF00020E030E0232B09F41ACE0E94000017CE2A
:100D00000E94280380E00E94D10384E591E00E94C4
:100D10007A02ECCF417070CF8FE690E00E941A0704
:100D2000FC0112821682158217828EE191E0918376
:100D30008083DF015C96CD01CC961C9214961C92A8
:100D40001E92139715961C9215971696A817B90719
:100D5000A1F7DF01AE59BF4F84E091E011969C935B
:100D60008E93129680E091E011969C938E9312964A
:100D700084E08C9311968C93179724E231E01196BE
:100D80003C932E9318962AE030E011963C932E93D4
:100D9000129624EF31E011963C932E931396119600
:100DA0001C921E9251971D921D921D921C92139798
:100DB00050961C92F0936301E093620110927001CF
:100DC00010926F0122E131E030936E0120936D01AA
:100DD0009CE0909371019FEF909372019BE0909340
:100DE000730195E0909374018093750183E0809383
:100DF000760182E080937701109278011092790158
:100E000010927A0110927B0110927C0181E00E9485
:100E1000300310928A011092850108958091620139
:100E2000909163010C94B607EE0FFF1F0590F491AB
:100E3000E02D09940F931F93CF93DF938230910598
:100E400010F482E090E0E0918D01F0918E0130E0AD
:100E500020E0B0E0A0E0309799F42115310509F4C5
:100E60004AC0281B390B24303105D8F58A819B8173
:100E70006115710589F1FB0193838283FE0111C025
:100E8000408151810281138148175907E0F04817CA
:100E9000590799F4109761F012960C9312971396D4
:100EA0001C933296CF01DF91CF911F910F9108953E
:100EB00000938D0110938E01F4CF2115310551F06F
:100EC0004217530738F0A901DB019A01BD01DF0188
:100ED000F801C1CFEF01F9CF90938E0180938D017E
:100EE000CDCFFE01E20FF31F819391932250310980
:100EF00039832883D7CF20918B0130918C01232B0C
:100F000041F420910A0130910B0130938C01209320
:100F10008B0120910801309109012115310541F41F
:100F20002DB73EB740910C0150910D01241B350B9C
:100F3000E0918B01F0918C01E217F307A0F42E1BD6
:100F40003F0B2817390778F0AC014E5F5F4F24172D
:100F5000350748F04E0F5F1F50938C0140938B0173
:100F6000819391939FCFF0E0E0E09CCFCF93DF930C
:100F70000097E9F0FC01329713821282A0918D0153
:100F8000B0918E01ED0130E020E01097A1F42081B6
:100F90003181820F931F20918B0130918C01281792
:100FA000390709F061C0F0938C01E0938B01DF9168
:100FB000CF910895EA01CE17DF07E8F54A815B81FA
:100FC0009E0141155105B1F7E901FB83EA8349917F
:100FD0005991C40FD51FEC17FD0761F480819181F1
:100FE0000296840F951FE9019983888382819381FA
:100FF0009B838A83F0E0E0E012968D919C91139799
:101000000097B9F52D913C911197CD010296820F71
:10101000931F20918B0130918C012817390739F6E5
:10102000309751F510928E0110928D01B0938C0182
:10103000A0938B01BCCFD383C28340815181840FA5
:10104000951FC817D90761F44E5F5F4F888199815A
:10105000480F591F518340838A819B8193838283E8
:101060002115310509F0B0CFF0938E01E0938D0189
:101070009ECFFD01DC01C0CF13821282D7CFFB01CE
:10108000DC018D91019080190110D9F3990B08951D
:1010900010E0C2E6D0E004C0FE010E9414072196D1
:0A10A000C336D107C9F7F894FFCF5B
:1010AA000A0D0E0F0607080900008F0180000000D4
:1010BA000000DF037B017702760200000000720263
:1010CA006E024602313233413435364237383943BB
:1010DA002A30234450494E20706C656173653A008A
:1010EA003132333400416363657373204772616E32
:1010FA00746564004163636573732044656E696552
:02110A0064007F
:00000001FF
