:100000000C9463000C948B000C948B000C948B006C
:100010000C948B000C948B000C948B000C948B0034
:100020000C948B000C948B000C948B000C948B0024
:100030000C948B000C948B000C948B000C948B0014
:100040000C9491030C948B000C948B000C948B00FB
:100050000C948B000C948B000C948B000C948B00F4
:100060000C948B000C948B000000000023002600F1
:10007000290000000000240027002A0000000000E2
:10008000250028002B0004040404040404040202D4
:100090000202020203030303030301020408102007
:1000A0004080010204081020010204081020000012
:1000B0000008000201000003040700000000000027
:1000C00000000406860611241FBECFEFD8E0DEBF75
:1000D000CDBF11E0A0E0B1E0E8E8FFE002C005908C
:1000E0000D92A034B107D9F721E0A0E4B1E001C03E
:1000F0001D92AD36B207E1F710E0C2E6D0E004C0D1
:100100002197FE010E948C06C136D107C9F70E94D3
:10011000DB030C94B7070C940000833081F028F4C3
:10012000813099F08230A9F008958730A9F08830A5
:10013000C9F08430B1F4809180008F7D03C080913C
:1001400080008F7780938000089584B58F7784BD79
:10015000089584B58F7DFBCF8091B0008F77809319
:10016000B00008958091B0008F7DF9CF1F93CF9399
:10017000DF93282F30E0F901E255FF4F8491F90118
:10018000E656FF4FD491F901EA57FF4FC491CC23B3
:10019000A9F0162F81110E948D00EC2FF0E0EE0FD8
:1001A000FF1FE458FF4FA591B4918FB7F894EC91DD
:1001B000111108C0D095DE23DC938FBFDF91CF9162
:1001C0001F910895DE2BF8CFCF93DF9390E0FC01D1
:1001D000E656FF4F24918A579F4FFC018491882354
:1001E000C9F090E0880F991FFC01EE58FF4FA591D0
:1001F000B491FC01E458FF4FC591D49161110DC039
:100200009FB7F8948C91209582238C938881282322
:1002100028839FBFDF91CF910895623051F49FB73B
:10022000F8943C91822F809583238C93E8812E2B28
:10023000EFCF8FB7F894EC912E2B2C938FBFEACF92
:10024000AF92BF92CF92DF92EF92FF920F931F93E4
:10025000CF93DF936C017B018B01040F151FEB0122
:100260005E01AE18BF08C017D10759F06991D601D9
:10027000ED91FC910190F081E02DC6010995892B4B
:1002800079F7C501DF91CF911F910F91FF90EF900A
:10029000DF90CF90BF90AF900895CF93DF93DC01B4
:1002A00026E0629FA00DB11D112490965C934E93A1
:1002B0005F9721E091962C939197FC01E359FF4FB2
:1002C0000190F081E02DEC01C459DF4F28812223F9
:1002D00041F0309719F0DC01662329F0DF91CF91CE
:1002E00008953097D9F35C968C91DF91CF91099462
:1002F000CF92DF92EF92FF920F931F93CF93DF93F2
:10030000FC0126E0629FE00DF11D112411A2278D52
:1003100030A12130310559F188F02230310509F43E
:1003200052C02330310509F453C0DF91CF911F91A2
:100330000F91FF90EF90DF90CF9008954423A9F3A1
:10034000EC0141E050E00E944D012FB7F8948091FC
:10035000470190914801A0914901B0914A012FBFF6
:10036000C85ADF4F88839983AA83BB83DECF2FB718
:10037000F894C0904701D0904801E0904901F09076
:100380004A012FBFFC01E85AFF4F008111812281F1
:100390003381C01AD10AE20AF30A729600811181F0
:1003A00030E020E00C151D052E053F0560F442E00D
:1003B00050E0DF91CF911F910F91FF90EF90DF9070
:1003C000CF900C944D014111B0CF43E050E0F1CFFC
:1003D00050E040E0EECFCF93DF9370E0FB01E255B9
:1003E000FF4F8491FB01E656FF4FD4916A577F4F30
:1003F000FB01C491CC23A1F081110E948D00EC2F50
:10040000F0E0EE0FFF1FE859FF4FA591B491EC917A
:10041000ED2381E090E009F480E0DF91CF91089531
:1004200080E090E0FACF862F642F0C94B600862FE0
:10043000642F0C94E400089590E080E00895CF9339
:10044000DF93EC0160E08E810E94B60061E08E8156
:100450000E94B60060E08E810E94B6008BE891E0B9
:100460000197F1F7DF91CF910895CF92DF92EF924C
:10047000FF920F931F93CF93DF936C017C0187E072
:10048000E80EF11CD0E0C0E0062F10E0B8010C2E01
:1004900002C0759567950A94E2F76170F701819142
:1004A0007F010E94B6002196C430D10579F7C601BC
:1004B000DF91CF911F910F91FF90EF90DF90CF9040
:1004C0000C941F02CF92DF92EF92FF920F931F9333
:1004D000CF93DF93EC01F62E642F8C810E94B6003F
:1004E0008D818F3F19F060E00E94B6000F2D10E063
:1004F0008F8584FF25C06E0187E0C80ED11CF12CCA
:10050000E12CB8010E2C02C0759567950A94E2F7AC
:100510006170F60181916F010E94B600FFEFEF1A42
:10052000FF0A88E0E816F10461F7CE01DF91CF9170
:100530001F910F91FF90EF90DF90CF900C941F02CE
:10054000B80184E0759567958A95E1F7CE010E9420
:1005500035026F2DCE01DF91CF911F910F91FF904A
:10056000EF90DF90CF900C94350240E0682F8BE441
:1005700091E00C946202CF93DF93823029F4909142
:100580005A01986090935A0180935E0110925F0126
:1005900080E48093600180E18093610180E5809335
:1005A000620161E080914F010E94E400809150015E
:1005B0008F3F19F061E00E94E40061E080915101F9
:1005C0000E94E400CBE4D1E09E012B5431408091A5
:1005D0005A0184FD0BC084E090E02196281739076A
:1005E00044F461E08E810E94E400EECF88E090E068
:1005F000F4CF8BE39DE00197F1F760E080914F012C
:100600000E94B60060E0809151010E94B600809186
:1006100050018F3F19F060E00E94B60080915A01AE
:1006200084FD39C063E08BE491E00E943502CBE4A5
:10063000D6E4CE010197F1F763E08BE491E00E94EC
:1006400035022197F1F763E08BE491E00E943502D7
:1006500083E592E00197F1F762E08BE491E00E947C
:10066000350280915A0180620E94B50284E0809335
:100670005B018CE00E94B50281E00E94B5028BE331
:100680009FE10197F1F782E080935C0186E0DF91C2
:10069000CF910C94B50280620E94B5028BE496E47F
:1006A0000197F1F780915A0180620E94B50283E5BB
:1006B00092E00197F1F780915A0180620E94B502A1
:1006C000D0CF81E00E94B5028BE39FE10197F1F763
:1006D000E1E080915E018111E0E0E195F0E0E55B11
:1006E000FE4F848980680E94B5024AE050E064E3CE
:1006F00071E08BE491E00E942001E0915E01E23024
:1007000040F4E150F0E0E55BFE4F848980680C9492
:10071000B502E1E0F7CF41E00E94620281E090E0A3
:1007200008951F920F920FB60F9211242F933F93AB
:100730008F939F93AF93BF9380914701909148010E
:10074000A0914901B0914A013091460123E0230F65
:100750002D3758F50196A11DB11D209346018093B8
:10076000470190934801A0934901B0934A018091B9
:10077000420190914301A0914401B091450101963D
:10078000A11DB11D8093420190934301A0934401A8
:10079000B0934501BF91AF919F918F913F912F9160
:1007A0000F900FBE0F901F90189526E8230F02960A
:1007B000A11DB11DD2CFCF93DF93CDB7DEB72C975C
:1007C0000FB6F894DEBF0FBECDBF789484B58260BB
:1007D00084BD84B5816084BD85B5826085BD85B5E5
:1007E000816085BD80916E00816080936E00109263
:1007F00081008091810082608093810080918100DE
:10080000816080938100809180008160809380006E
:100810008091B10084608093B1008091B0008160CC
:100820008093B00080917A00846080937A008091F8
:100830007A00826080937A0080917A008160809350
:100840007A0080917A00806880937A001092C100CB
:1008500082E00E94BB020E9461030E946103412C5E
:10086000512C3201439420914001309141013C8749
:100870002B8724593F4F3C832B83E1E0D901EC9334
:100880008FB7F89440914701509148016091490118
:1008900070914A018FBF2B853C85245A3F4F3E8380
:1008A0002D83F90180819181A281B381481B590B6D
:1008B0006A0B7B0BEB85FC85E859FF4F80819181AA
:1008C000B0E0A0E084179507A607B70708F095C128
:1008D000F12C2B853C852A593F4F3A8329830B8580
:1008E0001C850E591F4FA981BA818C91F816A0F46E
:1008F000F801A081B181AF0DB11DEB85FC85808130
:100900009181FC012081318142E06C918B859C8535
:10091000F9010995F394E7CF312C2B853C852959B2
:100920003F4F38872F83CB84DC8434E6C30ED11C41
:100930004B855C854E595F4F5A874987AF81B88593
:100940008C91381608F087C0E32CF12CF601A081B9
:10095000B181CD018E0D9F1DAB85BC85ED91FC91C4
:100960000190F081E02D41E0DC016C918B859C854C
:100970000995F601A081B181CD018E0D9F1DAB853A
:10098000BC85ED91FC910280F381E02D40E0DC011B
:100990006C918B859C850995D301C201032C04C001
:1009A000880F991FAA1FBB1F0A94D2F74C015C0144
:1009B000A094B094212CAB85BC85ED91FC91A981CC
:1009C000BA818C91281628F5022D10E0A985BA85E8
:1009D0008D919C91DC01A00FB11F0480F581E02D69
:1009E0006C918B859C850995000F111FEB85FC850B
:1009F000E00FF11F892B41F4808591858829992981
:100A0000918780872394D7CF808591858A219B21E8
:100A1000F7CFD6018D919C91DC01AE0DBF1D0280F8
:100A2000F381E02D41E06C918B859C850995F60161
:100A300080819181E80EF91EAB85BC85ED91FC911A
:100A40000190F081E02D40E0D7016C918B859C8571
:100A50000995339473CFEB84FC84C701CC9687014E
:100A6000F801278D30A1232B31F4148E2FEF3FEFA7
:100A7000368F258F11A20A5F1F4F8017910781F7CC
:100A8000912CCB84DC8430E6C30ED11CA981BA81C1
:100A90008C91981608F05BC0812CA92CB12CB4E085
:100AA000AB0EB11CAA0CBB1CEB85FC85AE0EBF1EA9
:100AB000AF81B8858C91881608F047C0F501408158
:100AC0005181082C02C0569547950A94E2F7989EEA
:100AD000C0011124880D911DEB85FC8560E0258DFA
:100AE000368D8217930709F48DC06F5F36966A3092
:100AF000B1F740FF28C0EB85FC8570E060E0248DF5
:100B000021111BC0D601ED91FC91E80FF91F208146
:100B1000B6E0B69FF001B79FF00D11244B855C85C0
:100B2000E40FF51F248F968F858F10A2178E41E05A
:100B30008B859C850E94780106C06F5F7F4F36963B
:100B40006A307105E1F68394B3CF93949FCF80E030
:100B5000D70191969C919111892FB6E0EB0EF11C73
:100B6000E016F106A9F79FB7F8944091470150911C
:100B700048016091490170914A019FBFED81FE815A
:100B800040835183628373838823B9F1AB85BC852D
:100B900091968C919197882381F15F968D919C918C
:100BA0009097019751F55C969C91292F092E000C86
:100BB000330B205331092A303105B8F4E091680134
:100BC000E43098F481E08E0F80936801F0E0E55BFB
:100BD000FE4F908FE82FF0E0E55BFE4F108E41E076
:100BE0006AE28BE491E00E94620220E030E0232B75
:100BF00009F439CE0E94000036CEEB81FC811082D0
:100C000090E0D3CF417094CF8FE690E00E9492069F
:100C1000FC0112821682158217828EE191E0918387
:100C20008083DF015C96CD01CC961C9214961C92B9
:100C30001E92139715961C9215971696A817B9072A
:100C4000A1F7DF01AE59BF4F84E091E011969C936C
:100C50008E93129680E091E011969C938E9312965B
:100C600084E08C9311968C93179724E231E01196CF
:100C70003C932E9318962AE030E011963C932E93E5
:100C8000129624EF31E011963C932E931396119611
:100C90001C921E9251971D921D921D921C921397A9
:100CA00050961C92F0934101E093400110924E0146
:100CB00010924D0122E131E030934C0120934B0121
:100CC0009CE090934F019FEF909350019BE0909395
:100CD000510195E0909352018093530183E08093FA
:100CE000540182E0809355011092560110925701F1
:100CF000109258011092590110925A0181E00E94FD
:100D0000BB02109268011092630108958091400126
:100D1000909141010C942E07EE0FFF1F0590F49166
:100D2000E02D09940F931F93CF93DF9382309105A9
:100D300010F482E090E0E0916B01F0916C0130E002
:100D400020E0B0E0A0E0309799F42115310509F4D6
:100D50004AC0281B390B24303105D8F58A819B8184
:100D60006115710589F1FB0193838283FE0111C036
:100D7000408151810281138148175907E0F04817DB
:100D8000590799F4109761F012960C9312971396E5
:100D90001C933296CF01DF91CF911F910F9108954F
:100DA00000936B0110936C01F4CF2115310551F0C4
:100DB0004217530738F0A901DB019A01BD01DF0199
:100DC000F801C1CFEF01F9CF90936C0180936B01D3
:100DD000CDCFFE01E20FF31F819391932250310991
:100DE00039832883D7CF2091690130916A01232B61
:100DF00041F420910A0130910B0130936A01209354
:100E0000690120910801309109012115310541F452
:100E10002DB73EB740910C0150910D01241B350BAD
:100E2000E0916901F0916A01E217F307A0F42E1B2B
:100E30003F0B2817390778F0AC014E5F5F4F24173E
:100E4000350748F04E0F5F1F50936A0140936901C8
:100E5000819391939FCFF0E0E0E09CCFCF93DF931D
:100E60000097E9F0FC01329713821282A0916B0186
:100E7000B0916C01ED0130E020E01097A1F42081E9
:100E80003181820F931F2091690130916A012817E7
:100E9000390709F061C0F0936A01E0936901DF91BD
:100EA000CF910895EA01CE17DF07E8F54A815B810B
:100EB0009E0141155105B1F7E901FB83EA83499190
:100EC0005991C40FD51FEC17FD0761F48081918102
:100ED0000296840F951FE90199838883828193810B
:100EE0009B838A83F0E0E0E012968D919C911397AA
:100EF0000097B9F52D913C911197CD010296820F83
:100F0000931F2091690130916A012817390739F63A
:100F1000309751F510926C0110926B01B0936A01F9
:100F2000A0936901BCCFD383C28340815181840FD8
:100F3000951FC817D90761F44E5F5F4F888199816B
:100F4000480F591F518340838A819B8193838283F9
:100F50002115310509F0B0CFF0936C01E0936B01DE
:100F60009ECFFD01DC01C0CF13821282D7CF10E0EB
:100F7000C2E6D0E004C0FE010E948C062196C33672
:080F8000D107C9F7F894FFCF77
:100F88000A0D0E0F0607080900006D018000000019
:100F980000008B0320011C021B0200000000170246
:100FA8001302EB0131323341343536423738394395
:100FB8002A302344456E7465722050494E3A000029
:00000001FF
