:020000040000FA
:100000000C9462000C948A000C948A000C948A0070
:100010000C948A000C948A000C948A000C948A0038
:100020000C948A000C948A000C948A000C948A0028
:100030000C948A000C948A000C948A000C948A0018
:100040000C945F030C948A000C948A000C948A0030
:100050000C948A000C948A000C948A000C948A00F8
:100060000C948A000C948A000000000024002700F1
:100070002A0000000000250028002B0000000000DE
:1000800023002600290004040404040404040202DA
:100090000202020203030303030301020408102007
:1000A0004080010204081020010204081020000012
:1000B0000008000201000003040700000000000027
:1000C00000005C0511241FBECFEFD8E0DEBFCDBF1E
:1000D00011E0A0E0B1E0E6EBFBE002C005900D927C
:1000E000A834B107D9F721E0A8E4B1E001C01D921E
:1000F000A83DB207E1F710E0C2E6D0E004C02197C6
:10010000FE010E94D305C136D107C9F70E94A90399
:100110000C94D9050C94000096E0899FD00111241D
:10012000AF5ABE4F90967C936E935F9791E09196F5
:100130009C939197E091BE01F091BF019091BD0118
:10014000992339F0309751F0811108C080916D01E9
:100150000994309719F05C968C91FACF0895CF925C
:10016000DF92EF92FF920F931F9396E0899FF00129
:100170001124EF5AFE4F11A2278D30A121303105F5
:1001800051F178F02230310509F451C023303105A6
:1001900009F452C01F910F91FF90EF90DF90CF9024
:1001A00008956623B9F361E070E00E948C002FB7D8
:1001B000F89480914D0190914E01A0914F01B09122
:1001C00050012FBF8093A9019093AA01A093AB0186
:1001D000B093AC01DFCF9FB7F894C0904D01D090A1
:1001E0004E01E0904F01F09050019FBF0091A90196
:1001F0001091AA012091AB013091AC01C01AD10A33
:10020000E20AF30A0091BB011091BC0130E020E04A
:100210000C151D052E053F0550F462E070E01F919E
:100220000F91FF90EF90DF90CF900C948C006111B4
:10023000B1CF63E070E0F3CF70E060E0F0CF8330E7
:1002400081F028F4813099F08230A9F00895873048
:10025000A9F08830C9F08430B1F4809180008F7D9E
:1002600003C0809180008F7780938000089584B5CB
:100270008F7784BD089584B58F7DFBCF8091B000CA
:100280008F778093B00008958091B0008F7DF9CF73
:10029000CF93DF93282F30E0F901E255FF4F84918F
:1002A000F901E656FF4FD491F901EA57FF4FC49187
:1002B000CC23A1F081110E941F01EC2FF0E0EE0F82
:1002C000FF1FE458FF4FA591B491EC91ED2381E01D
:1002D00090E009F480E0DF91CF91089580E090E014
:1002E000FACF1F93CF93DF93282F30E0F901E25527
:1002F000FF4F8491F901E656FF4FD491F901EA5777
:10030000FF4FC491CC23A9F0162F81110E941F0129
:10031000EC2FF0E0EE0FFF1FEE58FF4FA591B491C8
:100320008FB7F894EC91111108C0D095DE23DC93BF
:100330008FBFDF91CF911F910895DE2BF8CFCF9320
:10034000DF9390E0FC01E656FF4F24918A579F4FC0
:10035000FC0184918823C9F090E0880F991FFC016B
:10036000E859FF4FA591B491FC01EE58FF4FC5919C
:10037000D49161110DC09FB7F8948C912095822380
:100380008C938881282328839FBFDF91CF91089584
:10039000623051F49FB7F8943C91822F809583236B
:1003A0008C93E8812E2BEFCF8FB7F894EC912E2B06
:1003B0002C938FBFEACF862F642F0C949F01862F3A
:1003C000642F0C947101862F0C944801AF92BF9258
:1003D000CF92DF92EF92FF920F931F93CF93DF9311
:1003E0006C017B018B01040F151FEB015E01AE1840
:1003F000BF08C017D10759F06991D601ED91FC9162
:100400000190F081E02DC6010995892B79F7C5018E
:10041000DF91CF911F910F91FF90EF90DF90CF90E0
:10042000BF90AF900895089590E080E00895CF9335
:10043000DF93EC0160E08E810E94710161E08E81AA
:100440000E94710160E08E810E9471018BE891E051
:100450000197F1F7DF91CF910895CF92DF92EF925C
:10046000FF920F931F93CF93DF936C017C0187E082
:10047000E80EF11CD0E0C0E0062F10E0B8010C2E11
:1004800002C0759567950A94E2F76170F701819152
:100490007F010E9471012196C430D10579F7C60110
:1004A000DF91CF911F910F91FF90EF90DF90CF9050
:1004B0000C941702CF92DF92EF92FF920F931F934B
:1004C000CF93DF93EC01F62E642F8C810E94710193
:1004D0008D818F3F19F060E00E9471010F2D10E0B7
:1004E0008F8584FF25C06E0187E0C80ED11CF12CDA
:1004F000E12CB8010E2C02C0759567950A94E2F7BD
:100500006170F60181916F010E947101FFEFEF1A96
:10051000FF0A88E0E816F10461F7CE01DF91CF9180
:100520001F910F91FF90EF90DF90CF900C941702E6
:10053000B80184E0759567958A95E1F7CE010E9430
:100540002D026F2DCE01DF91CF911F910F91FF9062
:10055000EF90DF90CF900C942D0240E0682F80EC5C
:1005600091E00C945A02CF93DF93823029F490915A
:10057000CF0198609093CF018093D3011092D40162
:1005800080E48093D50180E18093D60180E580935B
:10059000D70161E08091C4010E949F018091C50153
:1005A0008F3F19F061E00E949F0161E08091C601D8
:1005B0000E949F01C0ECD1E09E01205C31408091FF
:1005C000CF0184FD0BC084E090E021962817390705
:1005D00044F461E08E810E949F01EECF88E090E0BC
:1005E000F4CF8BE39DE00197F1F760E08091C401C7
:1005F0000E94710160E08091C6010E9471018091AA
:10060000C5018F3F19F060E00E9471018091CF0118
:1006100084FD39C063E080EC91E00E942D02CBE4C0
:10062000D6E4CE010197F1F763E080EC91E00E94FF
:100630002D022197F1F763E080EC91E00E942D02FA
:1006400083E592E00197F1F762E080EC91E00E948F
:100650002D028091CF0180620E94AD0284E08093E0
:10066000D0018CE00E94AD0281E00E94AD028BE3DC
:100670009FE10197F1F782E08093D10186E0DF915D
:10068000CF910C94AD0280620E94AD028BE496E49F
:100690000197F1F78091CF0180620E94AD0283E55E
:1006A00092E00197F1F78091CF0180620E94AD0244
:1006B000D0CF41E00E945A0281E090E008951F925D
:1006C0000F920FB60F9211242F933F938F939F9306
:1006D000AF93BF9380914D0190914E01A0914F0136
:1006E000B091500130914C0123E0230F2D3758F584
:1006F0000196A11DB11D20934C0180934D01909353
:100700004E01A0934F01B093500180914801909108
:100710004901A0914A01B0914B010196A11DB11D63
:100720008093480190934901A0934A01B0934B01F3
:10073000BF91AF919F918F913F912F910F900FBEDD
:100740000F901F90189526E8230F0296A11DB11D4A
:10075000D2CF789484B5826084BD84B5816084BD35
:1007600085B5826085BD85B5816085BD80916E004F
:10077000816080936E001092810080918100826080
:1007800080938100809181008160809381008091BD
:1007900080008160809380008091B10084608093AC
:1007A000B1008091B00081608093B00080917A00A8
:1007B000846080937A0080917A00826080937A00CE
:1007C00080917A00816080937A0080917A008068BD
:1007D00080937A001092C10082E00E94B3024AE046
:1007E00050E06EE271E080EC91E00E94E601412C65
:1007F000512C3201439422242A94322C50E0C52EED
:1008000050E0D52E51E05093BD018FB7F894409140
:100810004D0150914E0160914F01709150018FBF79
:100820008091AD019091AE01A091AF01B091B00166
:10083000481B590B6A0B7B0B8091B9019091BA014F
:10084000B0E0A0E084179507A607B70708F012C12B
:10085000C0E08091B701C81760F4E091B301F09156
:10086000B401EC0FF11D62E080810E949F01CF5F17
:10087000F0CF912C8091B801981608F05FC0092D37
:1008800010E0E091B501F091B601E00FF11F61E0D9
:1008900080810E949F01E091B501F091B601E00FC7
:1008A000F11F60E080810E947101D301C201092C17
:1008B00004C0880F991FAA1FBB1F0A94D2F75C01BE
:1008C0007C01E094F094812C8091B7018816F8F4B3
:1008D000C82DD0E0E091B301F091B401EC0FFD1F01
:1008E00080810E9448012496CC0FDD1FCF5ADE4F35
:1008F000892B41F4888199818A299B29998388834E
:100900008394E2CF888199818E219F21F7CFE09156
:10091000B501F091B601E00FF11F61E080810E9406
:1009200071018091B5019091B601080F191F60E027
:10093000F80180810E949F0193949CCFC1E5D1E092
:10094000FE01878D90A1892B21F4148E368E258E81
:1009500011A2369651E0ED38F50799F710E0809135
:10096000B701181708F053C000E0E12EF12CEE0C8F
:10097000FF1CC701875A9E4F7C012091B8010217C6
:1009800008F043C0F70160817181002E02C07695A6
:1009900067950A94E2F7129F90011124200F311DF0
:1009A000E1E5F1E080E0458D568D2417350709F427
:1009B00081C08F5F36968A30B1F760FF24C0E1E5D1
:1009C000F1E090E080E0448D411118C0E091B10168
:1009D000F091B201E20FF31F408156E0589FF00101
:1009E000599FF00D1124EF5AFE4F448F368F258FFB
:1009F00010A2178E61E00E94AF0005C001963696E6
:100A00008A30910501F70F5FB8CF1F5FA8CF80E054
:100A100099A19111892F269691E0CD38D907C1F778
:100A20009FB7F89440914D0150914E0160914F0154
:100A3000709150019FBF4093AD015093AE01609300
:100A4000AF017093B0018823A9F0809172018823CF
:100A500089F08091700190917101019759F4C091D2
:100A60006D01C1110AC0C114D10409F4CBCE0E949A
:100A70000000C8CE1092BD01F6CFE091D301E23064
:100A8000B8F4E150F0E0E054FE4F848980680E94A1
:100A9000AD024DE050E069E371E080EC91E00E942E
:100AA000E60141E06C2F80EC91E00E945A02DBCF1E
:100AB000E1E0E8CF61709FCF1092C3011092C201B4
:100AC00086E291E09093C1018093C0018CE0809315
:100AD000C4018FEF8093C5018BE08093C60185E050
:100AE0008093C70184E08093C80183E08093C901AB
:100AF00082E08093CA011092CB011092CC01109237
:100B0000CD011092CE011092CF0181E00E94B3027C
:100B100010925301109257011092560110925801F1
:100B20008CE191E09093520180935101EDE6F1E068
:100B30001082148213821582369681E0E93AF80712
:100B4000B9F784E091E09093B4018093B30180E021
:100B500091E09093B6018093B50184E08093B70152
:100B60008093B80188E091E09093B2018093B10145
:100B70008AE090E09093BA018093B90184EF91E00C
:100B80009093BC018093BB011092BF011092BE01F3
:100B90001092AD011092AE011092AF011092B0010F
:100BA0001092BD010895EE0FFF1F0590F491E02D06
:100BB0000994F894FFCF0A0D0E0F06070809313289
:100BC000334134353642373839432A302344000024
:100BD0000000DB01DF01E301000000005903E60132
:100BE00014021302456E746572204B65793A005900
:0E0BF0006F7520707265737365643A200000A3
:107E0000112484B714BE81FFF0D085E080938100F7
:107E100082E08093C00088E18093C10086E0809377
:107E2000C20080E18093C4008EE0C9D0259A86E02C
:107E300020E33CEF91E0309385002093840096BBD3
:107E4000B09BFECF1D9AA8958150A9F7CC24DD24C4
:107E500088248394B5E0AB2EA1E19A2EF3E0BF2EE7
:107E6000A2D0813461F49FD0082FAFD0023811F036
:107E7000013811F484E001C083E08DD089C08234E0
:107E800011F484E103C0853419F485E0A6D080C0E4
:107E9000853579F488D0E82EFF2485D0082F10E0AE
:107EA000102F00270E291F29000F111F8ED06801E7
:107EB0006FC0863521F484E090D080E0DECF843638
:107EC00009F040C070D06FD0082F6DD080E0C81688
:107ED00080E7D80618F4F601B7BEE895C0E0D1E017
:107EE00062D089930C17E1F7F0E0CF16F0E7DF06D8
:107EF00018F0F601B7BEE89568D007B600FCFDCFD4
:107F0000A601A0E0B1E02C9130E011968C91119780
:107F100090E0982F8827822B932B1296FA010C0160
:107F200087BEE89511244E5F5F4FF1E0A038BF0790
:107F300051F7F601A7BEE89507B600FCFDCF97BE46
:107F4000E89526C08437B1F42ED02DD0F82E2BD052
:107F50003CD0F601EF2C8F010F5F1F4F84911BD097
:107F6000EA94F801C1F70894C11CD11CFA94CF0C13
:107F7000D11C0EC0853739F428D08EE10CD085E9AC
:107F80000AD08FE07ACF813511F488E018D01DD067
:107F900080E101D065CF982F8091C00085FFFCCF94
:107FA0009093C60008958091C00087FFFCCF809118
:107FB000C00084FD01C0A8958091C6000895E0E648
:107FC000F0E098E1908380830895EDDF803219F02E
:107FD00088E0F5DFFFCF84E1DECF1F93182FE3DFCA
:107FE0001150E9F7F2DF1F91089580E0E8DFEE27F6
:047FF000FF270994CA
:027FFE00040479
:00000001FF
